:020000040800F2
:1000000060350020390400082D0200082F02000886
:1000100033020008370200083B020008000000001D
:100020000000000000000000000000003F02000887
:1000300041020008000000004302000859220008A5
:100040005304000853040008530400085304000834
:100050005304000853040008530400085304000824
:100060005304000853040008530400085304000814
:100070005304000853040008530400085304000804
:100080005304000853040008450200085304000804
:10009000C136000853040008530400085304000844
:1000A00053040008530400085304000853040008D4
:1000B0002F37000853040008413900085304000892
:1000C00053040008530400085304000853040008B4
:1000D00053040008512E0008AB2F000825310008FA
:1000E0005304000853040008530400085304000894
:1000F0005304000853040008530400085304000884
:100100005304000853040008530400085304000873
:10011000D7320008BD350008530400085304000816
:100120005304000853040008530400085304000853
:1001300000F002F800F06AF80AA090E8000C82448F
:100140008344AAF10107DA4501D100F05FF8AFF26C
:10015000090EBAE80F0013F0010F18BFFB1A43F0A5
:1001600001031847A8FC0000C8FC00000A444FF037
:10017000000C10F8013B13F0070408BF10F8014B06
:100180001D1108BF10F8015B641E05D010F8016B4B
:10019000641E01F8016BF9D113F0080F1EBF10F8AF
:1001A000014BAD1C0C1B09D16D1E58BF01F801CBD2
:1001B000FAD505E014F8016B01F8016B6D1EF9D555
:1001C0009142D6D37047000000230024002500266A
:1001D000103A28BF78C1FBD8520728BF30C148BFAA
:1001E0000B60704766290FF08C8064290CF010803A
:1001F000002070471FB50CF01DFB040000200021FB
:100200000DF010FEE0601FBD10B510BD0CF032FC0B
:100210001146FFF7EFFF03F0C7FD0CF050FC03B4ED
:10022000FFF7F2FF03BC00F0D3F90000704700BFF6
:10023000FEE700BFFEE700BFFEE700BFFEE7704736
:100240007047704710B5034809F096F802490880D6
:1002500010BD000000280140000000200CB5002067
:10026000019000906B48006840F480306949086054
:1002700000BF6848006800F4003000900198401CFE
:100280000190009818B90198B0F5A06FF1D16148BC
:10029000006810F4003F02D00120009001E000202F
:1002A00000900098012842D15B48006840F010009F
:1002B000594908600846006820F0030008600846B5
:1002C000006840F0020008605248406851494860A8
:1002D0000846406848600846406840F480604860CE
:1002E0000846406820F47C1048600846406840F4A6
:1002F000E81048600846006840F08070086000BF61
:100300004448006810F0007FFAD04248406820F06E
:100310000300404948600846406840F002004860D9
:1003200000BF3C48406800F00C000828F9D10CBD23
:1003300010B5FFF793FF10BD10B53648006840F0C8
:100340000100344908600846406834490840314992
:10035000486008460068324908402E49086008464F
:10036000006820F4802008600846406820F4FE0001
:1003700048604FF41F008860FFF7DAFF4FF000601D
:100380002849086010BD10B5002100200022214B33
:100390005B6803F00C0121B1042906D0082928D19B
:1003A00007E0214B214C236027E01F4B1F4C2360AB
:1003B00023E0184B5B6803F47010164B5B6803F482
:1003C0008032022303EB904022B9194B4343174C70
:1003D00023600DE00F4B5B6813F4003F04D0144B17
:1003E0004343124C236003E00F4B43430F4C236005
:1003F00003E00D4B0D4C236000BF00BF054B5B6855
:10040000C3F303130B4CE15C084B1B68CB40074C58
:10041000236010BD00100240002002400000FFF8E1
:10042000FFFFF6FE08ED00E000127A000400002055
:1004300000093D000800002009488047094800479E
:10044000FEE7FEE7FEE7FEE7FEE7FEE7FEE7FEE784
:10045000FEE7FEE704480549054A064B70470000E1
:100460003903000831010008602F002060350020AA
:10047000603100206031002010B5044602230122C3
:1004800021464A4808F011FF0121484808F0E1FEE2
:1004900000BF0221454809F04DF80028F9D000219D
:1004A000424808F0D6FE414808F066FF10BD0246FB
:1004B0000020002107E032F81130834201DB32F8DE
:1004C00011004B1CD9B20229F5DB704770B5044608
:1004D0000025042C18D12046FFF7CEFF3449354AB9
:1004E000127821F8120033480078401C3149087016
:1004F00008460078022801DB002008702C482D49AE
:10050000097830F811504FE0052C18D12046FFF73C
:10051000B3FF2949294A127821F8120027480078A8
:10052000401C2649087008460078022801DB00209C
:10053000087021482149097830F8115034E00E2C18
:1005400018D12046FFF798FF1D491E4A127821F85E
:1005500012001C480078401C1A49087008460078B0
:10056000022801DB0020087015481649097830F888
:10057000115019E00F2C17D12046FFF77DFF1249CB
:10058000124A127821F8120010480078401C0F49D6
:10059000087008460078022801DB002008700A482D
:1005A0000A49097830F81150284670BD00240140EE
:1005B00018000020280000201C0000202900002036
:1005C000200000202A000020240000202B00002012
:1005D00000BF70470246FE48007858B900BFFD488A
:1005E000008810F0400FFAD0D0B2FA4B1B1D1880D3
:1005F00010467047F648007801280BD100BFF64836
:10060000008810F0400FFAD0D0B2F34B1B1D1880B9
:100610001046EEE7EE48007802280BD100BFEF4805
:10062000008810F0400FFAD0D0B2EC4B1B1D1880A0
:100630001046DEE7E648007803280BD100BFE84803
:10064000008810F0400FFAD0D0B2E54B1B1D188087
:100650001046CEE7DE48007804280AD100BFE14802
:10066000008810F0400FFAD0D0B2DE4B98801046D0
:10067000BFE70020BDE72DE9F041DB48007888B9ED
:100680000420FFF723FFD949088008880DF0A8FE51
:1006900006460022D64B0DF0C9FC04460DF0D8FBEF
:1006A000D4490860D048407888B90520FFF70EFF8C
:1006B000CE49488048880DF093FE06460022CC4B78
:1006C0000DF0B4FC04460DF0C3FBCA494860C648AF
:1006D000807888B90E20FFF7F9FEC44988808888A1
:1006E0000DF07EFE06460022C14B0DF09FFC044635
:1006F0000DF0AEFBBF498860BB48C07888B90F20B9
:10070000FFF7E4FEB949C880C8880DF069FE0646C7
:100710000022B74B0DF08AFC04460DF099FBB54959
:10072000C860BDE8F0812DE9F041AF48007888B19C
:100730000420FFF7CBFEAD49088008880DF050FE7D
:1007400006460022AA4B0DF071FC04460DF080FB1A
:10075000A8490860A448407888B10520FFF7B6FE94
:10076000A249488048880DF03BFE06460022A04B77
:100770000DF05CFC04460DF06BFB9E4948609A4806
:10078000807888B10E20FFF7A1FE9849888088887C
:100790000DF026FE06460022954B0DF047FC044660
:1007A0000DF056FB934988608F48C07888B10F20C0
:1007B000FFF78CFE8D49C880C8880DF011FE0646F3
:1007C00000228B4B0DF032FC04460DF041FB8949B1
:1007D000C860BDE8F08184480078A0B18648006810
:1007E00088B18248008840F62231884204DD83487F
:1007F0000088401C8149088080480088282802DD44
:1008000016207F49087078484078A0B17D4800687C
:1008100088B17648408840F62231884204DD774826
:100820004088401C7549488074484088282802DD6B
:100830001620754908706C488078A0B1734800682C
:1008400088B16A48808840F62231884204DD6B48CE
:100850008088401C6949888068488088282802DD93
:1008600016206B4908706048C078A0B169480068DC
:1008700088B15E48C08840F62231884204DD5F4876
:10088000C088401C5D49C8805C48C088282802DDBB
:10089000162061490870704710B55348007870BB46
:1008A0005248008840F62231884218DD5B480088B3
:1008B0000A305A49088008460088B0F57A7F1EDB66
:1008C0004FF47A70088016204D4908704FF400717B
:1008D000534809F032FF0020524908700FE04F489A
:1008E0000088142804DD4D48008814384B490880DE
:1008F0004A480088002802DC0020484908803A481D
:10090000407870BB3948408840F62231884218DD73
:10091000454800880A304449088008460088B0F5F8
:100920007A7F1EDB4FF47A700880162036490870F3
:100930004FF480713A4809F000FF002039494870AF
:100940000FE039480088142804DD3748008814383F
:100950003549088034480088002802DC00203249EC
:10096000088021488078002870D12048808840F68F
:100970002231884217DD2D48008832302B4908800B
:1009800008460088B0F57A7F60DB4FF47A70088003
:1009900016201F4908708021214809F0CEFE002052
:1009A0002049887052E021480088002804DD1F4853
:1009B0000088401E1D4908801C480088002845DC2E
:1009C00000201A49088017488078401C15492FE0FC
:1009D0002C00002000380140004400400048004046
:1009E000004C0040005000406B00002062000020DE
:1009F0000000B040940200207C0000208C00002009
:100A00005A000020800000205B00002084000020AD
:100A10005C000020880000205D00002052000020C3
:100A2000001001405E00002054000020560000200D
:100A3000887008468078642808DB642088700B2062
:100A4000FB4908708021FB4809F075FEFA48C07820
:100A5000F0BBFA48C08840F62231884217DDF848DA
:100A600000883230F649088008460088B0F57A7F61
:100A700031DB4FF47A7008801620F249087040216B
:100A8000EC4809F05AFE0020EF49C87023E0EC481A
:100A90000088002804DDEA480088401EE8490880F4
:100AA000E7480088002816DC0020E5490880E64871
:100AB000C078401CE449C8700846C07864280ADB46
:100AC0006420C8700B20DF4908704021D94800E03D
:100AD00001E009F030FE10BD2DE9F041DB48B0F82F
:100AE000160250B3D948007ED9490870D748407ED5
:100AF0004870D648807E8870D4494A7E097E02EBD1
:100B000001200DF056FC0646D24AD34B0DF0B8FC3E
:100B100004460DF09DF9CE494860CC49897E01F02C
:100B20007F015A22C2EB41000EF086F9C849886065
:100B30000020C649A1F8160206E00020C44908704A
:100B40004870887048608860C448B0F8160250B396
:100B5000C248007EC2490870C048407E4870BF4805
:100B6000807E8870BD494A7E097E02EB01200DF02F
:100B700020FC0646B74AB84B0DF082FC04460DF047
:100B800067F9B7494860B549897E01F07F015A226B
:100B9000C2EB41000EF050F9B14988600020AF4926
:100BA000A1F8160206E00020AD4908704870887070
:100BB00048608860AB48B0F81602E0B1A948007EF2
:100BC000A9490870A748407E4870A6494A7E097E18
:100BD00002EB01200DF0EDFB06469E4A9E4B0DF008
:100BE0004FFC04460DF034F99F49486000209D49B0
:100BF000A1F8160204E000209B4908704870486084
:100C00009848B0F8320400B3964890F834029749F7
:100C10000870944890F835024870924991F835224E
:100C200091F8341202EB01200DF0C3FB0646894A0D
:100C3000894B0DF025FC04460DF00AF98B494860FC
:100C400000218848A0F8321404E000208749087089
:100C500048704860BDE8F0812DE9F05F8448B0F845
:100C60001602002830DD002521E082480088284453
:100C7000B0F5007F07DB7F4800882844A0F50070AE
:100C80001FFA80F804E07B48008828441FFA80F8A7
:100C900000BF7948008810F0400FFAD07448163031
:100CA00010F8081074480BF0A9F9681CC5B20E2D95
:100CB000DBDB08F101006F4908806D48B0F81602CF
:100CC000401E6B49A1F816026C48B0F816020028C5
:100CD00030DD002621E06A4800883044B0F5007F0E
:100CE00007DB674800883044A0F500701FFA80F9E0
:100CF00004E06348008830441FFA80F900BF5E4872
:100D0000008810F0400FFAD05C48163010F8091037
:100D100059480BF073F9701CC6B20E2EDBDB09F1DB
:100D20000100574908805548B0F81602401E534943
:100D3000A1F816025348B0F8160200282CDD002452
:100D40001EE0514800882044B0F5007F06DB4E4885
:100D500000882044A0F5007087B203E04A4800886C
:100D6000204487B200BF4448008810F0400FFAD0FA
:100D700044481630C15D40480BF040F9601CC4B2D5
:100D80000E2CDEDB781C404908803E48B0F8160285
:100D9000401E3C49A1F816023248B0F8160200285D
:100DA00030DD002421E0394800882044B0F5007F80
:100DB00007DB364800882044A0F500701FFA80FA4F
:100DC00004E03248008820441FFA80FA00BF2A4815
:100DD000008810F0400FFAD02248163010F80A10A0
:100DE00025480BF00BF9601CC4B20E2CDBDB0AF1BA
:100DF0000100264908801B48B0F81602401E194918
:100E0000A1F816021748B0F83204002863DD002468
:100E100053E01F4800882044B0F5007F3ADB1C48AF
:100E200000882044A0F500701FFA80FB37E0000026
:100E30005C000020001001406B00002062000020D8
:100E4000580000205D0000205E000020A006002069
:100E5000380400207B14AE47E17A843FBC080020B0
:100E60004404002048130020AC000020B4000020FF
:100E7000100F002098000020004400402C1100209A
:100E80009A000020F40C0020960000209C00002016
:100E90009E000020FE48008820441FFA80FB00BF0F
:100EA000FC48008810F0400FFAD0FB4810F80B10F7
:100EB000F8480BF0A3F8601CC4B20E2CA9DB0BF1B0
:100EC0000100F3490880F548B0F83204401E81B2B1
:100ED000F248A0F83214BDE8F09FF1480078F149DB
:100EE0000870EF4840784870ED4880788870EE4888
:100EF0000078C870EC4840780871EB4880784871F9
:100F0000EA4800788871E9484078C871E848007874
:100F10000872E74840784872E64800780A30E549A8
:100F20000870704770B5E4480078002877D0E3482F
:100F300000780B2873D1E248007800286FD1E1488F
:100F4000008840F2E651884205DCDE48008840F225
:100F5000D251884208DADC48006810B90020DB4929
:100F600008800120D8490860D6480088D84991F9FE
:100F700000100844D349088008460088B0F5166F71
:100F800004DA08460088B0F5167F0CDC0020CE4954
:100F9000086040F2DC50CB490880CD4800784042E0
:100FA00040B2CB490870C948008840B9C6480068BB
:100FB00028B1C8480078401CC649087002E00020EB
:100FC000C4490870C3480078052802DD0020BA49EA
:100FD0000870BE4908880DF047FF06460DF060FD19
:100FE000044622460B46BCA00BF0D2F80020B749BD
:100FF0000880B448008844F61F62101A81B2BB48CA
:101000000AF080FEAF4800880DF02EFF06460DF076
:1010100047FD044622460B46B5A00BF0B9F8A6489A
:101020004078002877D0B64800780B2873D1B548AF
:10103000007800286FD1B448008840F2E651884219
:1010400005DCB148008840F2D251884208DAAF4846
:10105000006810B900209D4948800120AB49086014
:10106000A9480088AA4991F900100844A6490880B7
:1010700008460088B0F5166F04DA08460088B0F517
:10108000167F0CDC0020A149086040F2DC509E492C
:1010900008809F480078404240B29D4908708B48C4
:1010A000408840B99948006828B18A484078401C77
:1010B0008849487002E00020864948708548407899
:1010C000052802DD00207C494870804948880DF0E1
:1010D000CBFE06460DF0E4FC044622460B468DA0EE
:1010E0000BF056F80020794948808748008844F67C
:1010F0001F62101A81B27D480AF002FE8248008801
:101100000DF0B2FE06460DF0CBFC044622460B461F
:1011100085A00BF03DF868488078002877D0864895
:1011200000780B2873D18548007800286FD1844857
:10113000008840F2E651884205DC8148008840F290
:10114000D251884208DA7F48006810B900205F4910
:10115000888001207B490860794800887A4991F9A4
:10116000001008447649088008460088B0F5166FDC
:1011700004DA08460088B0F5167F0CDC00207149BF
:10118000086040F2DC506E4908806F4800784042A9
:1011900040B26D4908704D48808840B96948006880
:1011A00028B14C488078401C4A49887002E00020F1
:1011B0004849887047488078052802DD00203E496C
:1011C0008870424988880DF04FFE06460DF068FC95
:1011D000044622460B465DA00AF0DAFF00203B4998
:1011E00088805748008844F61F62101A81B23F4831
:1011F0000AF084FD524800880DF036FE06460DF0D8
:101200004FFC044622460B4655A00AF0C1FF2A486F
:10121000C07800283AD0564800780B2836D1554877
:101220000078002832D15448008840F2E6518842C4
:1012300005DC5148008840F2D251884208DA4F4814
:10124000006810B900202149C88001204B4908607E
:10125000494800884A4991F90010084446490880E5
:1012600008460088B0F5166F04DA08460088B0F525
:10127000167F0CDC00204149086040F2DC503E49FA
:1012800008803F480078404240B27BE0B8E07BE015
:101290009E000020004400407A15002048130020E2
:1012A00038040020A402002044040020AC000020E8
:1012B000B40000206A0000206B0000205A000020CB
:1012C00073000020340000207C0000208C000020EF
:1012D000720000204E0000207374655F666C6167C9
:1012E000745B305D3D25660A00000000000400408C
:1012F000647574795F6379636C65343D25660A00B3
:101300005B000020740000203200002080000020DC
:10131000710000207374655F666C6167745B315D9A
:101320003D25660A00000000647574795F63796387
:101330006C65333D25660A005C00002075000020C6
:101340003000002084000020700000207374655F6E
:10135000666C6167745B325D3D25660A00000000C3
:10136000647574795F6379636C65323D25660A0044
:101370005D000020760000202E0000208800002064
:101380006F000020FE490870FE48C08840B9FE4842
:10139000006828B1FD48C078401CFC49C87002E0D4
:1013A0000020FA49C870F948C078052802DD0020FD
:1013B000F749C870F349C8880DF056FD06460DF090
:1013C0006FFB044622460B46F2A00AF0E1FE002025
:1013D000EC49C880F448008844F61F62101A81B2B4
:1013E000F2480AF089FCF04800880DF03DFD064601
:1013F0000DF056FB044622460B46EDA00AF0C8FE4F
:1014000070BD70B5E248007800287DD0EC480078C7
:10141000162879D1EB480078401CEA490870084644
:101420000078012852D10020E7490860E74909887F
:10143000A1F5C3700DF000FD06460DF031FB04462A
:1014400022460B46AFF258100AF0A2FECD4908889A
:101450000DF00AFD06460DF023FB044622460B461E
:10146000AFF28C100AF094FE0020C6490880D749DC
:101470000988B1F5F96001D4014600E041420C2928
:1014800005DCD3480078401CD149087004E0D148FD
:101490000078401CCF490870CD4800780DF0E4FC7E
:1014A00006460DF0FDFA044622460B46CAA00AF095
:1014B0006FFEC84800780DF0D7FC06460DF0F0FA34
:1014C000044622460B46C7A00AF062FEBF480088C9
:1014D000A0F5C370C649C8800846C088C5490880C1
:1014E000C348C0884FF4254101EB0040A530C249F4
:1014F000C8600120C149C8600020A54908700B20C0
:10150000AF490870B14800E00FE00088A0F5C37053
:1015100044F61F62101A81B2A4480AF0F3FBAB48EC
:101520000088A0F5C370A949088099484078002830
:101530005DD0B3480078162859D1B2480078401CD5
:10154000B049087008460078012823D10020AE4930
:101550000860AE490988A1F5C3700DF06DFC064620
:101560000DF09EFA044622460B46AFF244200AF0E4
:101570000FFE844948880DF077FC06460DF090FA7E
:10158000044622460B46AFF274200AF001FE00200A
:101590007C4948809D480088A0F5C37094498880A4
:1015A000084680889A490880914880884FF42541F0
:1015B00001EB0040A5309049886001208F49886088
:1015C0000020734948700B208D4908708F480088AF
:1015D000A0F5C37044F61F62101A81B273480AF076
:1015E0008FFB8A480088A0F5C37088490880684846
:1015F000807800285DD087480078162859D1864821
:101600000078401C8449087008460078012823D1DE
:1016100000208249086082490988A1F5C3700DF055
:101620000BFC06460DF03CFA044622460B46AFF290
:10163000D0200AF0ADFD534988880DF015FC064610
:101640000DF02EFA044622460B46AFF200300AF0A7
:101650009FFD00204B49888071480088A0F5C37029
:1016600063494880084640886E4908806048408841
:101670004FF4254101EB0040A5305F49486001204F
:101680005E4948600020424988700B20614908701B
:1016900063480088A0F5C37044F61F62101A81B237
:1016A00042480AF02BFB5E480088A0F5C3705C49F5
:1016B00008803748C07800285BD05B48007816283F
:1016C00057D15A480078401C58490870084600789D
:1016D000012821D100202C49086033490988A1F54F
:1016E000C3700DF0A9FB06460DF0DAF90446224658
:1016F0000B462FA00AF04CFD2249C8880DF0B4FB20
:1017000006460DF0CDF9044622460B4621A00AF00C
:101710003FFD00201B49C88023480088A0F5C37006
:1017200033490880084600884149088030480088CD
:101730004FF4254101EB0040A5302F4908600120FE
:101740002E49086000201249C8700B2036490870E5
:1017500015480088A0F5C37044F61F62101A81B2C4
:1017600012480AF0C9FA10480088A0F5C3700E4963
:1017700008802248006808B920485BE062E0000069
:101780006F0000208C000020880000204E00002008
:101790006B0000207374655F666C6167745B335D1A
:1017A0003D25660A000000002E00002000040040D5
:1017B000647574795F6379636C65313D25660A00F1
:1017C0005A000020730000207C000020340000201C
:1017D0007700002078000020676F6F6473756D3D9F
:1017E00025660A0062616473756D3D25660A000016
:1017F00046000020440000207402002084020020E3
:101800005B000020740000208000002032000020D7
:10181000420000205C0000207500002084000020B1
:1018200030000020400000205D00002076000020F5
:101830003E000020406828B9FB48806810B9FA488B
:10184000C06828B10020F849086048608860C86016
:1018500070BDF648007868B1F5480078062809DDC3
:101860000020F349087040F2DC50F24908800B2058
:10187000F1490870ED48407868B1F04800780628D2
:1018800009DD0020ED49087040F2DC50EC49088089
:101890000B20EC490870E548807868B1EA48007888
:1018A000062809DD0020E849087040F2DC50E749CD
:1018B00008800B20E6490870DC48C07868B1E5482C
:1018C0000078062809DD0020E249087040F2DC506B
:1018D000E14908800B20E1490870704710B5E048E5
:1018E000C06A98B10020DE49C862DE480078401C1A
:1018F000DC49087008460078012803DD00200870E4
:10190000FFF710FBFFF77DFDFFF7A3FF10BD10B53C
:10191000C648C07818BBD0480088B0F5166F04DD03
:101920004FF41660CC49088008E0CB480088B0F539
:10193000167F03DA4FF41670C7490880BE48007856
:10194000162803D140F2DC50C3490880C248008801
:1019500044F61F62101A81B2C3480AF0CDF9B348A9
:10196000807818BBB9480088B0F5166F04DD4FF4D5
:101970001660B649088008E0B4480088B0F5167FC4
:1019800003DA4FF41670B1490880AE480078162883
:1019900003D140F2DC50AD490880AC48008844F6E1
:1019A0001F62101A81B2B0480AF0A8F99F48407827
:1019B00018BBA3480088B0F5166F04DD4FF416601D
:1019C0009F49088008E09E480088B0F5167F03DA3A
:1019D0004FF416709A4908809D480078162803D164
:1019E00040F2DC50964908809548008844F61F6212
:1019F000101A81B29C480AF083F98C48007818BB11
:101A00008C480088B0F5166F04DD4FF416608949E4
:101A1000088008E087480088B0F5167F03DA4FF4A5
:101A20001670844908808D480078162803D140F24A
:101A3000DC50804908807F48008844F61F62101AF5
:101A400081B289480AF05EF910BD8848B0F81602E4
:101A500058B18648C07D8549897D00EB01208449C5
:101A6000088000208149A1F81602704781498978D1
:101A700001293FD100217F4A91707F4909787E4A30
:101A8000527801EB022108397C4A118111460989FB
:101A900008292FD1002008E0774A00F10801525CA4
:101AA00076490B310A54411CC8B2744909898142F4
:101AB000F2DC7249097B714AD27A01EB022109B248
:101AC0006F4A11806D498A7B497B02EB012109B283
:101AD0006C4A118069490A7CC97B02EB012109B279
:101AE000694A118065498A7C497C02EB012109B26F
:101AF000664A11804D49C97879B96549098809B2A2
:101B00005F4AB2F900201144002906DD60490988C6
:101B10005B4A12881144504A11804449897879B946
:101B20005C49098809B2574AB2F9002011440029DA
:101B300006DD58490988534A12881144434A1180E6
:101B40003A49497879B95449098809B24E4AB2F9F3
:101B500000201144002906DD4F4909884A4A1288AD
:101B60001144374A11803149097879B94B490988BC
:101B700009B2464AB2F900201144002906DD47495E
:101B80000988424A128811442A4A118070472DE977
:101B9000F04F87B004464FF0000AD346611E404A1A
:101BA00052F821003F490DF015F880463E490DF0EE
:101BB000A3F907460CF074FF3C4A3D4BCDE9020106
:101BC0000CF078F9CDE904010CF042F90646022543
:101BD00074E0C5EB05100CF0ECFB07468846284680
:101BE0000DF042F9314601900DF086F90290601E29
:101BF000304A52F8201002980DF07BFA03900CF056
:101C00004FFF21F000413A464346CDE904010CF074
:101C1000FBFB51D828460DF027F9074631460DF059
:101C20006BF906464CE00000840200206B000020A7
:101C300073000020340000205A00002074000020AF
:101C4000320000205B0000207500002030000020E2
:101C50005C000020760000202E0000205D000020A7
:101C600050040020A000002000040040D80A0020FA
:101C7000BC000020F40000201229002010040020E5
:101C800036000020380000203A0000203C000020F0
:101C90003E000020400000204200002044000020C0
:101CA0000C2400200000A041000070429A999999EC
:101CB0009999D93FD0030020681CC5B20A2D88DD50
:101CC00000BF601EFE4941F8206030460DF094F8D8
:101CD0001FFA80F909F0FF0B584603F064FEF9483B
:101CE00000785844F74908704FEA192A504603F023
:101CF0005AFEF44800785044F249087007B0BDE835
:101D0000F08F2DE9F04389B004468946202101A8CF
:101D10000AF0DCFA002C5FD14A4601A9204602F005
:101D2000F1F881469DF804009DF8051000EB0120B4
:101D3000E54988810846007B44284DD19DF80B1069
:101D400009069DF80A2001EB02419DF8092001EBEC
:101D500002219DF8082088180CF02BFB0746002272
:101D6000DA4B0CF063F905460CF072F8D6490860BE
:101D70009DF80F1009069DF80E2001EB02419DF819
:101D80000D2001EB02219DF80C2088180CF011FBAE
:101D900007460022CD4B0CF049F905460CF058F8E7
:101DA000C94948609DF8131009069DF8122001EBFF
:101DB00002419DF8112001EB02219DF810208818A6
:101DC0000CF0F7FA07460022C04B0CF02FF905463D
:101DD0000CF03EF8BC498860102C7DD14A4601A920
:101DE000204602F08FF881469DF804009DF805100A
:101DF00000EB0120B64908830846007E7728ECD125
:101E00009DF80B1009069DF80A2001EB02419DF890
:101E1000092001EB02219DF8082088180CF0C9FA6E
:101E200007460022A94B0CF001F905460CF010F80A
:101E3000A74908609DF80F1009069DF80E2001EBD8
:101E400002419DF80D2001EB02219DF80C2088181D
:101E50000CF0AFFA074600229C4B0CF0E7F8054661
:101E60000BF0F6FF9A4948609DF8131009069DF89B
:101E7000122001EB02419DF8112001EB02219DF897
:101E8000102088180CF095FA074600228F4B0CF0B2
:101E9000CDF805460BF0DCFF8D4988609DF81710E2
:101EA00009069DF8162001EB02419DF8152001EB73
:101EB00002219DF8142088180CF07BFA05460022B8
:101EC000824B0CF0B3F807460BF0C2FF8049C860A4
:101ED0009DF81B10090600E09BE09DF81A2001EB1D
:101EE00002419DF8192001EB02219DF81820881865
:101EF0000CF05FFA05460022744B0CF097F8074689
:101F00000BF0A6FF724908619DF81F1009069DF8A5
:101F10001E2001EB02419DF81D2001EB02219DF8DE
:101F20001C2088180CF045FA05460022674B0CF07F
:101F30007DF807460BF08CFF6549486108680CF096
:101F4000AFFD07460022634B0CF0C0FC21F00041BE
:101F50000546614A614B0CF091FB21D35C4948680E
:101F60000CF09EFD074600225A4B0CF0AFFC21F00E
:101F700000410546584A594B0CF080FB10D3544998
:101F800088680CF08DFD07460022524B0CF09EFC39
:101F900021F000410546504A504B0CF06FFB0AD22D
:101FA0004FF07E504A490860486088600020C86051
:101FB000086148612DE04649C8680CF071FD21F0C8
:101FC00000410546464A474B0CF058FB17D34049A1
:101FD00008690CF065FD21F000410546404A414B7F
:101FE0000CF04CFB0BD33A4948690CF059FD21F039
:101FF000004105463A4A3B4B0CF040FB09D2002019
:102000003349C860086148614FF07E5008604860FD
:10201000886009B0BDE8F08310B588B01C2101A824
:102020000AF054F930488069B8B100202E4988611F
:10203000FEF721FBFEF730FC03F0E6F92248007BB7
:1020400044280AD0294890F82500012805D102F03B
:1020500033F810B944201C4988812348406800287F
:102060007ED0002020494860204890F825000128B3
:1020700011D11548007B44280DD105F08BFE1C487A
:1020800000681C4908601A4840681B4908601848E5
:1020900080681A490860154890F8250001285FD12A
:1020A0000B48007E7728DBD004F0BDFE0728F6D170
:1020B0001348D0E9002110460BF0CAFE044921E084
:1020C000D003002094000020402A00200000E040BF
:1020D000602A00200000F03F9A9999999999B93F98
:1020E0001F85EB51B89E134050040020D82A0020D1
:1020F000202D00207C0100207801002074010020A8
:10210000C02C002008604D48D0E9022110460BF099
:102110009FFE4B4948604948D0E9042110460BF026
:1021200097FE474988604548D0E9062110460BF0E4
:102130008FFE4349C8604149D1E9082110460BF0A0
:1021400087FE3F4908613D48D0E90A2110460BF05F
:102150007FFE3B494861772008830846008B00E0FA
:1021600047E0019008684FF08E410CF0C5FE044630
:102170000CF026FE0290324948684FF08E410CF078
:10218000BBFE04460CF01CFE03902D4988684FF0FE
:102190008E410CF0B1FE04460CF012FE049028496A
:1021A000C8684FF08E410CF0A7FE04460CF008FE04
:1021B0000590234908694FF08E410CF09DFE0446BE
:1021C0000CF0FEFD06901E4948694FF08E410CF060
:1021D00093FE04460CF0F4FD079001AA09210420A7
:1021E00001F09DFE0020164908831C211020FFF7F6
:1021F00088FD00BF00BFFEF72FFD1248C069D8B1AF
:1022000000201049C861FFF720FC0F48008844F601
:102210001F62101A81B20D4809F074FD0A48008847
:1022200044F61F62101A81B2084809F069FD064899
:10223000018807A009F0ACFF08B010BDC02C002039
:10224000602A002050040020BC0000200004004050
:1022500070776D3D25640A008048406880490860B9
:1022600000BF01207F4908607F49088800EBD071DA
:102270004910B0EB410102D101207A4948607A4807
:102280000088052190FBF1F201FB120018B9012032
:1022900074498860C860744800880A2190FBF1F294
:1022A00001FB120018B901206E49086148616E48AF
:1022B0000088142190FBF1F201FB120010B90120FB
:1022C0006849886168480088322190FBF1F201FB7F
:1022D000120010B901206349C86163480088642175
:1022E00090FBF1F201FB120010B901205D49086278
:1022F0005D480088C82190FBF1F201FB120010B983
:10230000012058494862584800884FF4FA7190FB00
:10231000F1F201FB120010B90120524988625248C3
:1023200000884FF47A7190FBF1F201FB120010B9B2
:1023300001204C49C8624C4800884FF4FA6190FB78
:10234000F1F201FB120010B9012046490863474829
:102350000068401C4549086043480088401C4249C9
:10236000088008460088B0F5FA6F01DD012008807A
:10237000704710B500BF3D4850E8001F374843681C
:1023800037480268394C44E800100028F3D1981A05
:10239000374C2468B0FBF4F001EB4104C4EBC114EA
:1023A00000EBC40010BD31480068704700B585B02F
:1023B000684608F07EFB2F490098B0FBF1F02C49ED
:1023C00008602D48006840F080702B490860234861
:1023D000006840F001002149086005B000BD70B5FB
:1023E000044600251D48466800F02CFC00BF1B4A2F
:1023F00051688A1B15440E461D4A1268B5FBF2F05F
:10240000A04200D307E0241A194A1268B5FBF2F380
:1024100002FB1355EBE700BF70BD0146134800688F
:1024200008600020704710B5044603E04FF47A704E
:10243000FFF7D5FF2000A4F10104F7D110BD002162
:1024400006E00A2100BF0A00A1F1010399B2FAD106
:102450000200A0F1010398B2F3D17047001000E030
:10246000CC00002050040020D4000020C800002030
:10247000D000002040420F00FCED00E000B587B026
:102480000121480208F082FB0121042008F07EFBB4
:102490003020ADF8040000208DF8070001A9FE48A7
:1024A00008F09EF80121102008F070FB3020ADF8F4
:1024B000040000208DF8070001A9F84808F090F802
:1024C0004FF4C020029000208DF80C008DF80D0014
:1024D0004FF4602004900020059001208DF8180032
:1024E00002A9EF4806F049FE0121ED4806F071FE11
:1024F000EB4806F090FE00BFE94806F091FE002888
:10250000FAD1E74806F096FE00BFE54806F097FED0
:102510000028FAD10021E24806F09BFE07B000BD7A
:1025200000B587B00121082008F030FB01218803A5
:1025300008F039FB4FF42040ADF8180018208DF852
:102540001B0003208DF81A0006A9D64808F048F8A9
:102550004FF48040ADF8180048208DF81B00032090
:102560008DF81A0006A9CF4808F03AF84FF48050C9
:10257000ADF8180010208DF81B0003208DF81A000C
:1025800006A9C84808F02CF80020ADF804004FF464
:102590008270ADF806000020ADF808000220ADF80A
:1025A0000A000120ADF80C004002ADF80E0020201A
:1025B000ADF810000020ADF812000720ADF81400AF
:1025C00001A9B94808F070FB0121B74808F011FCD7
:1025D00007B000BD10B586B00446012144F20400E6
:1025E00008F0D4FA4FF40070ADF8140018208DF8FC
:1025F000170003208DF8160005A9A74807F0F0FF83
:102600004FF48060ADF8140004208DF8170003200B
:102610008DF8160005A9A04807F0E2FF25208DF8E7
:10262000000003208DF801008DF8020001208DF8D4
:102630000300684606F011FD01940020ADF8080083
:10264000ADF80A00ADF80C000C20ADF80E0000202B
:10265000ADF8100001A9954809F0D7FB012240F21E
:102660002551924809F069FC0121904809F059FC74
:1026700006B010BD10B586B004460121042008F054
:1026800085FA0121480408F08EFA0420ADF8140000
:1026900018208DF8170003208DF8160005A97E4834
:1026A00007F09EFF0820ADF8140004208DF81700F5
:1026B00003208DF8160005A9774807F091FF262022
:1026C0008DF8000003208DF8010002208DF8020033
:1026D00001208DF80300684606F0BFFC019400203D
:1026E000ADF80800ADF80A00ADF80C000C20ADF80C
:1026F0000E000020ADF8100001A96D4809F085FB1F
:10270000012240F225516A4809F017FC012168486E
:1027100009F007FC06B010BD10B586B004460121D3
:10272000082008F033FA0121880408F03CFA4FF43D
:102730008060ADF8140018208DF8170003208DF884
:10274000160005A9574807F04BFF4FF40060ADF89D
:10275000140004208DF8170003208DF8160005A939
:10276000504807F03DFF27208DF8000003208DF82A
:10277000010001208DF802008DF80300684606F084
:102780006CFC01940020ADF80800ADF80A00ADF82B
:102790000C000C20ADF80E000020ADF8100001A9CF
:1027A000444809F032FB012240F22551414809F02A
:1027B000C4FB01213F4809F0B4FB06B010BD10B5C1
:1027C00086B004460121112008F0E0F90121C80477
:1027D00008F0E9F94FF48060ADF8140018208DF886
:1027E000170003208DF8160005A92C4807F0F8FE05
:1027F0004FF40060ADF8140004208DF8170003209A
:102800008DF8160005A9254807F0EAFE34208DF85A
:10281000000004208DF8010000208DF80200012046
:102820008DF80300684606F018FC01940020ADF80E
:102830000800ADF80A00ADF80C000C20ADF80E0051
:102840000020ADF8100001A91B4809F0DEFA0122B2
:1028500040F22551184809F070FB0121164809F093
:1028600060FB06B010BD10B586B0044601213120D2
:1028700008F08CF90121080508F095F94FF4805013
:10288000ADF8140018208DF8170003208DF81600FD
:1028900005A9024812E000000008014000100140B4
:1028A00000240140000C0140003800400038014085
:1028B0000044004000480040004C004007F090FEFB
:1028C0000420ADF814008DF8170003208DF81600D1
:1028D00005A9FE4807F084FE35208DF8000004208D
:1028E0008DF8010001208DF802008DF80300684684
:1028F00006F0B3FB01940020ADF80800ADF80A0023
:10290000ADF80C000C20ADF80E000020ADF8100062
:1029100001A9EF4809F079FA012240F22551EC486B
:1029200009F00BFB0121EA4809F0FBFA4FF4707043
:10293000ADF8140010208DF8170003208DF8160054
:1029400005A9E44807F04CFE06B010BD00B589B0FB
:102950000121084608F027F90121052008F016F9A1
:102960000320ADF8200048208DF8230002208DF8C8
:10297000220008A9D84807F033FE1C208DF81C005F
:1029800001208DF81D0002208DF81E0001208DF819
:102990001F0007A806F061FB0020ADF81000ADF89D
:1029A00012000120ADF814000020ADF816000F2031
:1029B000ADF8180004A94FF0804008F03CFE042058
:1029C000ADF810000020ADF812000120ADF81400A1
:1029D0000020ADF816000F20ADF8180004A94FF044
:1029E000804008F028FE4FF6FF70ADF808002F2059
:1029F000ADF804000020ADF80A00ADF8060001A90A
:102A00004FF0804008F084FB0121880708F0DCFECD
:102A100001220721900708F0F2FE09B000BD00B5C1
:102A200089B00121042008F0BEF80121082008F037
:102A3000ADF8C020ADF8200048208DF8230002201A
:102A40008DF8220008A9A54807F0CAFD4FF4407090
:102A5000ADF8200048208DF8230002208DF82200D8
:102A600008A99E4807F0BCFD1E208DF81C0001201F
:102A70008DF81D008DF81E008DF81F0007A806F0C8
:102A8000ECFA0020ADF81000ADF812000120ADF80E
:102A900014000020ADF816000F20ADF8180004A9AE
:102AA0008F4808F0C8FD0420ADF810000020ADF8F4
:102AB00012000120ADF814000020ADF816000F2020
:102AC000ADF8180004A9864808F0B5FD0820ADF857
:102AD00010000020ADF812000120ADF81400002015
:102AE000ADF816000F20ADF8180004A97C4808F0D6
:102AF000A2FD0C20ADF810000020ADF8120001205E
:102B0000ADF814000020ADF816000F20ADF8180045
:102B100004A9734808F08FFD4FF6FF70ADF8080068
:102B20002F20ADF804000020ADF80A00ADF8060033
:102B300001A96B4808F0ECFA0121694808F044FE4D
:102B400001221F21664808F05AFE09B000BD30B5C9
:102B500089B005460C460121022008F024F8012125
:102B6000082008F013F80320ADF8200018208DF895
:102B7000230003208DF8220008A9584807F030FDF3
:102B80000121042008F002F8C020ADF82000182030
:102B90008DF8230003208DF8220008A94E4807F085
:102BA0001FFDADF814500020ADF81600ADF8184028
:102BB000ADF81A0001208DF81C0005A9494808F05D
:102BC000A7FA7020ADF804000120ADF8060000203F
:102BD000ADF80C0001A9434808F0D7FA0821414894
:102BE00008F022FF01A93F4808F011FB08213D48E9
:102BF00008F023FF01A93B4808F056FB082139489B
:102C000008F028FF01A9374808F099FB082135484A
:102C100008F029FF0121334808F0D6FD09B030BD86
:102C200070B505460C4645F2555007F025FE28467E
:102C300007F025FE204607F025FE07F026FE07F0E8
:102C400029FE70BD10B507F020FE10BD2DE9F04142
:102C50008AB004460D4616461F46DDF84080012125
:102C6000052007F093FF0121480607F09CFF1E484E
:102C700006F084FC4FF48050ADF8240003208DF85A
:102C8000260018208DF8270009A9134807F0A8FC92
:102C90004FF40060ADF8240048208DF8270009A902
:102CA0000D4807F09DFC00208DF81E008DF81F00D8
:102CB0008DF820008DF821008DF822008DF823007A
:102CC0008DF81A808DF81B4010E0000000140140C0
:102CD000005000400010014000080140000C01407D
:102CE0000008004000040040006400408DF81C60B3
:102CF0008DF81D50ADF8187006A9504806F057FC25
:102D000000208DF812008DF8130001208DF81400BA
:102D10004FF4E070ADF808000020ADF80A004FF65F
:102D2000FF70ADF80C00ADF80E000020ADF81000FB
:102D300001208DF8150002A806F0C3FC0122022133
:102D40003E4806F0BCFF14208DF8040001208DF8E9
:102D5000050000208DF8060001208DF8070001A86D
:102D600006F07BF90AB0BDE8F08170B53448006820
:102D70004FF47A72B0FBF2F1B1F1807F00D31BE027
:102D800021F07F40401E4FF0E022506150170F228B
:102D9000002806DA13012B4C00F00F052D1F635598
:102DA00002E01301284C235400BF00204FF0E02222
:102DB00090610720106100BFFFF760FBFFF7C6FDC1
:102DC000FFF72DFE4FF47A710420FFF729FFFFF77C
:102DD000A7FB4FF4FA60FFF726FB752002F07BFC9F
:102DE00002F0BBFC4FF4E130FFF7F4FB4FF4E130AD
:102DF000FFF740FC4FF4E130FFF78EFC4FF4E13079
:102E0000FFF7DDFC4FF4E130FFF72DFD44F61F61C5
:102E10004720FFF79CFE40210C4807F08CFC8021E6
:102E20000A4807F088FC4FF48071084807F083FCDB
:102E30004FF40071054807F07EFC70BD006400404F
:102E40000400002018ED00E000E400E00010014064
:102E500070B540F22551FB4809F054F9002874D0B0
:102E6000F84809F0CFF8C4B2F748007805286DD2C9
:102E7000DFE800F0031D33495F00AA2C13D10120C5
:102E8000F14908700020F1494860DD21EF484268AF
:102E90000830815408384068401CEC4948600020E4
:102EA000EB49087002E00020E74908707BE0AA2C9B
:102EB0000DD10220E4490870AA21E4484268083094
:102EC000815408384068401CE049486004E0002014
:102ED000DD490870DD49486065E0DC48416808303C
:102EE000445408384068401CD8494860D8480078A5
:102EF000401CD7490870084600780A2802D10320F0
:102F0000D14908704FE0552C0DD10420CE490870EE
:102F10005521CE4842680830815408384068401C2A
:102F2000CA49486004E00020C7490870C7494860A2
:102F300039E0552C2DD15521C448426808308154C0
:102F40000020C2494860002516E02DE027E0BF4878
:102F50000830415D08380268163081541638006820
:102F6000401CBA49086008460068B0F5007F01DBE4
:102F700000200860681CC5B20E2DE8DBB348B0F82D
:102F80001602401CB149A1F816020020AE49087093
:102F900004E00020AC490870AC49486003E0002020
:102FA000A949087000BF00BF70BD70B540F225513F
:102FB000A84809F0A7F800287DD0A64809F022F813
:102FC000C4B2A5480078052876D2DFE800F0031DDA
:102FD00033495F00AA2C13D101209F4908700020BB
:102FE0009E494860BB219D4842680830815408389A
:102FF0004068401C9949486000209949087002E0E7
:103000000020954908708BE0AA2C0DD1022092492E
:103010000870AA21914842680830815408384068F5
:10302000401C8E49486004E000208B4908708B49A1
:10303000486075E089484168083044540838406861
:10304000401C8649486086480078401C84490870C6
:10305000084600780A2802D103207F4908705FE003
:10306000552C0DD104207C49087055217B484268BD
:103070000830815408384068401C7849486004E0B2
:103080000020754908707549486049E0552C3DD1CC
:10309000552172484268083081540838807A0A28DD
:1030A0000DD16E48C07A062809D16C48407B00F0EB
:1030B00003006A4901E034E02EE081F818020020A4
:1030C00066494860002514E064480830415D0838CE
:1030D00002681630815416380068401C5F49086049
:1030E00008460068B0F5007F01DB00200860681C1E
:1030F000C5B20E2DE8DB5948B0F81602401C5749FE
:10310000A1F8160200205449087004E0002052493A
:1031100008705249486003E000204F49087000BF22
:1031200000BF70BD70B540F225514E4808F0EAFF6F
:1031300000287DD04B4808F065FFC4B24A480078AB
:10314000052876D2DFE800F0031D33495F00AA2C82
:1031500013D1012044490870002044494860CC2123
:10316000424842680830815408384068401C3F4952
:10317000486000203E49087002E000203A4908708B
:10318000A7E0AA2C0DD1022037490870AA213748A0
:1031900042680830815408384068401C3349486010
:1031A00004E00020304908703049486091E02F4821
:1031B00041680830445408384068401C2B49486036
:1031C0002B480078401C2A490870084600780A28D5
:1031D00002D10320244908707BE0552C0DD1042036
:1031E0002149087055212148426808308154083827
:1031F0004068401C1D49486004E000201A490870DE
:103200001A49486065E0552C58D155211748426845
:10321000083081540838807A0A280DD11348C07AC2
:10322000062809D11148407B00F003000F4901E056
:1032300050E04AE081F8180200200C49486000255F
:103240002DE0000000380140DB000020F40C0020DD
:10325000DC00002000440040DD000020100F0020B2
:10326000DE00002000480040DF0000202C1100207C
:10327000E0000020F948415D0838026816308154AA
:1032800016380068401CF54908390860084600688F
:10329000B0F5007F01DB00200860681CC5B20E2D70
:1032A000E8DBEE480838B0F81602401CEB49083954
:1032B000A1F816020020EA49087005E00020E8495C
:1032C0000870E6490839486003E00020E4490870C6
:1032D00000BF00BF70BD2DE9F041002500240CB9EE
:1032E000DE2700E0DF2740F22551DE4808F00AFF24
:1032F000002877D0DB4808F085FEC5B2DA48005DCB
:10330000052870D2DFE800F00339709ED300AA2DA3
:103310002FD10120D44908550020C4EB041101EB42
:10332000C101D24A02EB81014860C4EB041000EBFA
:10333000C000114601EB80000830C4EB041101EB22
:10334000C10102EB810149684754C4EB041000EB52
:10335000C000114601EB80004068401CC4EB041122
:1033600001EBC10102EB810148600020C049085512
:1033700002E00020BC4908551DE1AA2D26D10220FB
:10338000B9490855AA21C4EB041000EBC000B74AA4
:1033900002EB80000830C4EB041202EBC202B34B14
:1033A00003EB820252688154C4EB041000EBC000AE
:1033B000194601EB80004068401CC4EB041101EB8E
:1033C000C1011A4602EB810148600AE00020A649CB
:1033D0000855C4EB041101EBC101A44A02EB8101C1
:1033E0004860E8E0E8E0E2E0C4EB041000EBC00075
:1033F0009E4901EB80000830C4EB041101EBC101D0
:103400009A4A02EB810149684554C4EB041000EB71
:10341000C000114601EB80004068401CC4EB041161
:1034200001EBC10102EB810148609148005D401C45
:103430008F4908550846005D0A2802D103208A49B1
:103440000855B8E0552D26D1042087490855552147
:10345000C4EB041000EBC000844A02EB800008308B
:10346000C4EB041202EBC202804B03EB82025268EF
:103470008154C4EB041000EBC000194601EB80003E
:103480004068401CC4EB041101EBC1011A4602EB79
:10349000810148600AE0002073490855C4EB04111B
:1034A00001EBC101714A02EB8101486083E0552DB7
:1034B00071D100206C4908555521C4EB041000EB74
:1034C000C0006A4A02EB80000830C4EB041202EB31
:1034D000C202664B03EB8202526881540020C4EBA7
:1034E000041101EBC1011A4602EB8101486000267C
:1034F0003AE0C4EB041000EBC0005C4901EB800033
:103500000830815DC4EB041000EBC000574A02EBA9
:1035100080001630C4EB041202EBC202534B53F886
:1035200022208154C4EB041000EBC000194651F86E
:103530002000401CC4EB041101EBC1011A4642F803
:103540002100C4EB041000EBC000114651F820002C
:10355000B0F5007F06DB0020C4EB041101EBC101D4
:1035600042F82100701CC6B20E2EC2DBC4EB041060
:1035700000EBC0003D4901EB8000B0F81602401C92
:10358000C4EB041101EBC101384A02EB8101A1F83F
:1035900016020BE0FFE7002033490855C4EB041185
:1035A00001EBC101314A02EB8101486003E00020D8
:1035B0002D49085500BF00BFBDE8F08110B540F2AD
:1035C00025512C4808F09EFD002878D0294808F0A5
:1035D00019FDC4B22848007806286BD2DFE800F055
:1035E000031A232D505AFF2C10D12448B0F816028C
:1035F00060B94FF400712148163008F045FE0020F4
:103600001E49086001201C49087002E000201A4988
:10361000087053E01CB902201749087002E000202E
:10362000154908704AE0012C03D1032012490870A3
:1036300002E000201049087040E010480168163090
:10364000445416380068401C0C490860084600685D
:10365000022802D10420084908702FE0341100200C
:10366000DF000020004C0040E10000204813002053
:10367000E300002000500040E5000020D80A0020B0
:10368000552C03D10520FE49087002E00020FC49BA
:10369000087013E0552C07D10120FA49A1F8160251
:1036A0000020F749087002E00020F549087005E0A5
:1036B00005E0FFE70020F249087000BF00BF10BD21
:1036C00010B586B000240221EF4806F0F8FB01AAED
:1036D0000021ED4806F0D8F99DF80C0008BB0198D0
:1036E0000E281ED100BF0AE00DF10F00005DE74972
:1036F000E74A128801EBC2010855601CC4B2082CCD
:10370000F2DBE3480088401CE14908800846008855
:10371000B0F5C87F01DB002008800021DA4806F000
:103720002BFA0021D84806F027FA06B010BD2DE983
:10373000F05F4FF000090121880708F00EFB40B14F
:10374000D4480079401CD349087108464079401C90
:103750004871D0480079192806DD0020CE4908615B
:10376000CC490871CD490881CA484079192806DD3D
:103770000020C9494861C7494871C84948810221A8
:10378000480708F0EAFA002866D00121C44806F08C
:10379000B8FF012860D1800708F0C0FA0446BF488E
:1037A0000089002850D00121BD4806F0AAFF012859
:1037B0004AD1B84800794FF4803101FB0040B74945
:1037C0000989A0EB0109B9F5167F19DBB148007929
:1037D000B0B948460BF030FB83464FF07E510BF0FA
:1037E0008BFB82460BF05CF905462A460B4600200F
:1037F000AC490AF01BFC07460AF02AFBA6490861FF
:10380000A54801694FF080400BF076FB8046A64842
:10381000016940460BF06DFC05460BF041F921F0C3
:10382000004106460022A14B0AF0EEFD07D89A4857
:1038300001694FF080400BF05FFB974908619648A3
:1038400000699949086102E00020934908619348A2
:10385000048100208F4908710421080708F07DFACF
:10386000002866D002218E4806F04BFF012860D167
:10387000800708F056FA044688484089002850D04E
:103880000221874806F03DFF01284AD1814840794E
:103890004FF4803101FB004080494989A0EB0109C8
:1038A000B9F5167F19DB7B484079B0B948460BF073
:1038B000C3FA83464FF07E510BF01EFB82460BF09D
:1038C000EFF807463A460B46002076490AF0AEFB71
:1038D00005460AF0BDFA704948616F4841694FF0EA
:1038E00080400BF009FB80466F48416940460BF071
:1038F00000FC05460BF0D4F821F0004106460022FA
:103900006A4B0AF081FD07D8634841694FF0804057
:103910000BF0F2FA604948615F48406962494861CA
:1039200002E000205C4948615C484481002059491C
:10393000487107214FF0804008F020FABDE8F09F61
:103940002DE9F05F4FF000090121594808F005FA10
:1039500080B150480078401C4E49087008464078B5
:10396000401C487008468078401C88700846C07823
:10397000401CC87047480078192806DD00204649D9
:103980000860444908704549088042484078192831
:1039900006DD0020404948603E4948703F49488064
:1039A0003C488078192806DD00203B498860394969
:1039B00088703A4988803748C078192806DD002089
:1039C0003549C8603349C8703449C8800221384835
:1039D00008F0C3F900286FD04021364806F091FE68
:1039E00001287FD1324808F099F904462B48008815
:1039F00000286FD040212F4806F083FE012869D1AE
:103A0000244800784FF4803101FB004023490988A5
:103A1000A0EB0109B9F5167F19DB1E480078B0B993
:103A200048460BF009FA83464FF07E510BF064FADA
:103A300082460BF035F807463A460B4600201949F6
:103A40000AF0F4FA05460AF003FA1349086012482E
:103A500001684FF080400BF04FFA80461248016831
:103A600040460BF046FB05460BF01AF821F00041EA
:103A7000064600220D4B0AF0C7FC25D806481CE07C
:103A8000E5000020D80A00200064004080170020D4
:103A9000D6000020E60000200C2400200024002096
:103AA0000008014060E336412424002000003E402D
:103AB00000080040000C014014E001684FF0804015
:103AC0000BF01AFAB0490860AF480068AF490860C7
:103AD00003E0FFE70020AC490860AD480480002007
:103AE000AC4908700421AC4808F037F9002866D0CA
:103AF0008021AA4806F005FE012860D1A64808F0FA
:103B000010F90446A2484088002850D08021A348DC
:103B100006F0F7FD01284AD19E4840784FF48031E5
:103B200001FB00409A494988A0EB0109B9F5167FCD
:103B300019DB98484078B0B948460BF07DF98346C8
:103B40004FF07E510BF0D8F982460AF0A9FF0746E4
:103B50003A460B46002092490AF068FA05460AF0F8
:103B600077F989494860884841684FF080400BF0F8
:103B7000C3F980468548416840460BF0BAFA0546CD
:103B80000AF08EFF21F0004106460022854B0AF024
:103B90003BFC07D87C4841684FF080400BF0ACF903
:103BA00079494860784840687849486002E00020D8
:103BB000754948607648448000207649487008215D
:103BC000754808F0CAF8002868D04FF4807173482F
:103BD00006F097FD012861D16F4808F0A5F804466A
:103BE0006B488088002851D04FF480716B4806F0F4
:103BF00088FD01284AD1674880784FF4803101FB65
:103C0000004063498988A0EB0109B9F5167F19DBEB
:103C100060488078B0B948460BF00EF983464FF003
:103C20007E510BF069F982460AF03AFF07463A46A0
:103C30000B4600205A490AF0F9F905460AF008F93E
:103C400051498860504881684FF080400BF054F92A
:103C500080464E48816840460BF04BFA05460AF014
:103C60001FFF21F00041064600224E4B0AF0CCFB1C
:103C700007D8454881684FF080400BF03DF9424934
:103C80008860414880684149886002E000203E49E0
:103C900088603F48848000203E49887010213E485B
:103CA00008F05BF8002869D04FF400713B4806F03B
:103CB00028FD012862D1384808F039F80446344814
:103CC000C088E8B34FF40071344806F01AFD0128AB
:103CD0004CD13048C0784FF4803101FB00402C4972
:103CE000C988A0EB0109B9F5167F19DB2948C0780E
:103CF000B0B948460BF0A0F883464FF07E510BF068
:103D0000FBF882460AF0CCFE05462A460B46002008
:103D100023490AF08BF907460AF09AF81A49C86055
:103D20001948C1684FF080400BF0E6F8804617480C
:103D3000C16840460BF0DDF905460AF0B1FE00E02F
:103D400014E021F0004106460022164B0AF05CFB0D
:103D500007D80D48C1684FF080400BF0CDF80A49F4
:103D6000C8600948C0680949C86002E000200649E7
:103D7000C8600748C48000200649C8701F21064853
:103D800007F0FCFFBDE8F09F0C2400202424002055
:103D900000240020E600002000080040000C014044
:103DA00060E3364100003E40FEF700FBFCF7C4FA3A
:103DB000FEF7DBFF0020414908704149A1F81602D7
:103DC0004049A1F816024049A1F816023F49A1F85E
:103DD000160200213D48A0F8321400203B4908603B
:103DE000C1F81C023A49A1F816023A49A1F8160294
:103DF0003949A1F816023649086036490860364943
:103E00000860364988813649088336490870487009
:103E10008870C8700220344908701C211020FDF7FA
:103E200070FF002002F02FFB304800680AF038FED7
:103E300005462A460B4600202D490AF0F7F80746AA
:103E40000AF006F80446002322462A4801682A4858
:103E500000F0C8F8254800680AF022FE05462A4608
:103E60000B46002022490AF0E1F8074609F0F0FF6E
:103E70000446002322461F480168204800F0B2F89B
:103E80001A4800680AF00CFE05462A460B46002038
:103E900017490AF0CBF8074609F0DAFF0446002379
:103EA000224614480168164800F09CF802F058F8C1
:103EB00003E0FEF7B1F8FEF7C5FEFAE75004002074
:103EC00084040020A0060020BC0800204813002025
:103ED000F40C0020100F00202C110020402A00209C
:103EE000602A00206B0000202C00002054010020DC
:103EF0000000F03F60010020A02A0020AC2A002032
:103F0000B82A002010B503460020344C234403E0B7
:103F100013F8014B0C54401C9042F9DB10BD2DE905
:103F2000F043B3B006460F469046002400254FF0FC
:103F300064094A461AA90020FFF7E4FF814600BF42
:103F400014E01AA9E01C085C01061AAAA01C105C67
:103F500001EB0041601C105C01EB00201AA9095D17
:103F6000084401A941F825006D1C241DA9F1040095
:103F7000A042E6D2354606E0A81B58F8200001A969
:103F800041F825006D1CBD42F6D906F010F834202A
:103F900006F0A2FA114806F049F811490870002409
:103FA00016E00F48007804280BD101AA52F824101B
:103FB0000A4A042303FB042006F008F908490870A4
:103FC00005E006F001F8012033B0BDE8F083641C81
:103FD000192CE6D305F0F8FF0020F5E700F80308F8
:103FE000030100202DE9FF5F04460D461646994661
:103FF00030460AF055FD0746884628460AF050FD2F
:1040000002460B46CDE900010020FE490AF00EF8F9
:1040100082463A4643460AF033FACDE9020109F0F6
:1040200017FFA060A0680AF03BFD07460022F54B91
:104030000AF024FB01D20020A060C4F80090BDE883
:10404000FF9F2DE9F04104460D46284621680BF0FC
:10405000E3F80746A1680AF04FFF064621680AF018
:104060004BFD2060D4E900010BF0D6F80746A168AB
:104070000AF042FF064661680AF03EFD6060606833
:10408000BDE8F08170B504460D461646DE4A21684B
:1040900010680AF031FDDC490860DB4A2968506885
:1040A0000AF02AFDD8494860D74A316890680AF07A
:1040B00023FDD549886070BD2DE9F0474FF06409B4
:1040C000002400250026DFF844A30020D049086022
:1040D00048608860CF480088642833DA01F069FDC1
:1040E000CD49C8680AF0DCFC21F000410746CB4A04
:1040F000CB4B0AF089F922D2C74908690AF0D0FCF3
:1041000021F000410746C54AC54B0AF07DF916D299
:10411000C14948690AF0C4FC21F000410746BF4A82
:10412000BF4B0AF071F90AD2BB4A1432111F081FA3
:10413000FFF7A8FFB7480088401CB6490880022056
:10414000BDE8F08701F035FDB24800880AF08CFE2A
:104150000746AD49086839460AF03CFDAA4908609F
:10416000AC4800880AF080FE0746A74948683946EF
:104170000AF030FDA4494860A64800880AF074FEA1
:104180000746A149886839460AF024FD9E4988609F
:104190000A461168A04AD0680BF03EF804469A4AD5
:1041A00051689D4A10690BF037F80546964A9168A8
:1041B000994A50690BF030F8064620460AF070FC28
:1041C00021F0004107464FF02042954B0AF056FA85
:1041D00017D328460AF064FC21F0004107464FF04F
:1041E00020428F4B0AF04AFA0BD330460AF058FCB3
:1041F00021F0004107464FF02042894B0AF03EFA79
:1042000008D20020804908604860886081490880A1
:10421000012095E77C4800687D4908607A4840683D
:104220004860794880688860002089E710B501F00F
:104230005DFD10BD10B501F004FC01F0BAFC10BD2D
:104240000FB5A3B07748016800680AF055FE1B90CF
:1042500075480168734800680AF04EFE1A9073486A
:104260000168704800680AF047FE19906E480168BE
:1042700000680AF041FE18906D4801686A480068BD
:104280000AF03AFE17906948016800680AF034FEA7
:10429000169067480168654800680AF02DFE159081
:1042A0006348016800680AF027FE1490002013900C
:1042B000129011905F482699FFF7C3FE5E4908608F
:1042C0005E482899FFF7BDFE5D4908605D48299961
:1042D000FFF7B7FE5C4908605C49239808605C49B9
:1042E000249808605B492598086057480168006871
:1042F0000AF002FE08905248016800680AF0FCFDCE
:1043000006904D48016800680AF0F6FD0590069990
:104310000AF0F2FB079008990AF0EEFB09900AF008
:10432000BFFBCDE90A0109F03FFDCDE90C0109F021
:104330008FFD22904048229900680AF04BFC1390B0
:104340003F48229900680AF045FC12903E482299A5
:1043500000680AF03FFC1190199917980AF05CFF69
:104360004FF080410D900AF0C7FD219015991A98E1
:104370000AF0C2FB4FF080410D900AF0BDFD209085
:1043800018991B980AF048FF0C9016990AF044FF00
:104390000D9014990AF0B0FB1F90209911980AF023
:1043A000ABFD0D901F9912980AF0A6FD0C900D9987
:1043B0000AF032FF1E901F9913980AF09DFD0D9090
:1043C000219911980AF098FD0C900D990AF024FF9C
:1043D0001D90219912980AF08FFD0D902099139845
:1043E0000AF08AFD0C900D990AF016FF1C901A49EC
:1043F0001E980AF081FD0C90184801680C980AF08C
:10440000E9FB2DE00000F03F502A002035FA8E3CF9
:10441000402A002064010020D82A0020ABAAAAAAC2
:1044200046DF913F04010020080100200C0100201C
:10443000100100207C2A002020010020882A002072
:1044400024010020942A00202801002014010020CB
:10445000180100201C010020CDCC4C3D540100204F
:104460000D90FE4801680D980AF046FBFB49086074
:10447000FB491D980AF040FD0C90FA4801680C9821
:104480000AF0A8FB0D90F84801680D980AF034FB7B
:10449000F5490860F2491C980AF02EFD0C90F1488D
:1044A00001680C980AF096FB0D90F04801680D9891
:1044B0000AF022FBED4908604FF080401E990AF097
:1044C0001BFD0C90EA4801680C980AF015FB0D9052
:1044D000E24801680D980AF00FFBE54908604FF0CB
:1044E00080401D990AF008FD0C90E24801680C9884
:1044F0000AF002FB0D90DC4801680D980AF0FCFA06
:10450000DC4908604FF080401C990AF0F5FC0C90E3
:10451000D94801680C980AF0EFFA0D90D348016869
:104520000D980AF0E9FAD4490860D4480168D048E7
:1045300000680AF0E1FCCE490860D0480168CD4827
:1045400000680AF0D9FCCB490860CC480168CA4829
:1045500000680AF0D1FCC8490860C948006810909A
:10456000C84800680F90C84800680E900846016867
:10457000C64800680AF0C0FC0C90BE4801680E985E
:104580000AF0BAFC0A900F9880F000400890B848F2
:10459000016808980AF0B0FC09900A990AF03CFEFC
:1045A0000B900C990AF038FE0D90B54801680D98F3
:1045B0000AF0A2FAB2490860AE480168B348006840
:1045C0000AF09AFC0C90AC4801680E980AF094FC32
:1045D0000A90A748016810980AF08EFC09900A9981
:1045E0000AF08AFA0B900C990AF016FE0D90A54875
:1045F00001680D980AF080FAA24908609C48016899
:10460000A24800680AF078FC0C909B4801680F985B
:104610000AF072FC0A909748016810980AF06CFC46
:1046200009900A990AF0F8FD0B900C990AF064FAC7
:104630000D90954801680D980AF05EFA924908605D
:104640008B4801680E980AF057FC0C908948016865
:104650000F980AF051FC0A908748016810980AF0F8
:104660004BFC09900A990AF047FA0B900C990AF052
:10467000D3FD0D90854801680D980AF03DFA8349F5
:1046800008600846016800680AF036FC08907E4819
:10469000016800680AF030FC06907A4801680068FA
:1046A0000AF02AFC04907648016800680AF024FCAD
:1046B000039004990AF020FA059006990AF01CFA72
:1046C000079008990AF018FA09900AF0E9F9CDE97B
:1046D0000A0109F069FBCDE90C0109F0B9FB229050
:1046E0006748229900680AF075FA654908606548CC
:1046F000229900680AF06EFA6249086062482299BD
:1047000000680AF067FA604908606048229900680A
:104710000AF060FA5D490860594801684FF080402E
:104720000AF0EAFB04905848016804980AF0E4FB98
:104730000690544801684FF040400AF0DDFB0490B9
:104740005248016804980AF0D7FB059006990AF0D0
:10475000D3F907900AF0A4F9CDE9080108F0F8FFB1
:104760004FF066324A4BCDE90A0109F089FECDE9E6
:104770000C0109F06DFB474908604749454800684E
:104780000AF086FC03D844484249086008E04349DF
:10479000404800680AF07CFB02D840483D49086068
:1047A0003C48006880F000403A490860364801689B
:1047B0004FF080400AF0A0FB019033480168019857
:1047C0000AF09AFB03902F4801684FF040400AF02E
:1047D00093FB01902B48016801980AF08DFB029031
:1047E00003990AF019FD4FF07E5104900AF084F904
:1047F00005900AF055F9CDE90801214801684FF00C
:1048000080400AF079FB02901E48016802980AF085
:1048100073FB04901C4801684FF080400AF06CFB69
:1048200002901A48016802980AF066FB0390049906
:104830000AF062F905900AF033F9CDE90601DDE9E5
:10484000082309F0D5F94FF06632114BCDE90A0182
:1048500009F016FECDE90C0122E000004401002021
:10486000CDCC4C3D54010020480100204C010020DB
:1048700014010020180100201C010020500100201C
:1048800004010020080100200C010020100100207C
:1048900066A64C407801002000003443000034C379
:1048A00009F0D6FAFE490860FE49FD4800680AF0A2
:1048B000EFFB03D8FB48FA49086008E0FA49F848DA
:1048C00000680AF0E5FA02D8F748F549086027B011
:1048D00000BD0FB5AFB0F548016800680AF00CFBE9
:1048E0001D90F3480168F14800680AF005FB1C9030
:1048F000F0480168ED4800680AF0FEFA1B90EE48A7
:104900000168EA4800680AF0F7FA1A90E848016876
:1049100000680AF0F1FA1990E6480168E448006876
:104920000AF0EAFA1890E4480168E14800680AF0E1
:10493000E3FA1790DF48016800680AF0DDFA169084
:10494000DD480168DB4800680AF0D6FA1590DA48BD
:10495000016800680AF0D0FA1490002013901290B9
:10496000119010900F900E90002136980AF0F4F9F3
:1049700013D1002137980AF0EFF90ED100213898B1
:104980000AF0EAF909D1DDE93401CDE900012FA8E7
:104990000FC8FFF755FC33B000BD36980AF080F819
:1049A000C64AC74BCDE9060109F06AFDCDE90A0107
:1049B000C44800680AF074F8C34AC44BCDE9060144
:1049C00009F05EFDCDE90801DDE90A2309F072FA7C
:1049D000CDE90C0109F03CFABA49086037980AF0B1
:1049E0005FF8B64AB64BCDE9060109F049FDCDE9BD
:1049F0000A01B74800680AF053F8B34AB34BCDE94F
:104A0000060109F03DFDCDE90801DDE90A2309F0C1
:104A100051FACDE90C0109F01BFAAD49086038984C
:104A20000AF03EF8A54AA64BCDE9060109F028FD9B
:104A3000CDE90A01A74800680AF032F8A24AA34B60
:104A4000CDE9060109F01CFDCDE90801DDE90A23E5
:104A500009F030FACDE90C0109F0FAF99D49086036
:104A60000846016800680AF047FA0B909848016808
:104A700000680AF041FA09909248016800680AF05B
:104A80003BFA089009990AF037F80A900B990AF056
:104A900033F80C9009F0AFF901460D904FF07E50BD
:104AA0000AF098F82E9087482E9900680AF024FAA8
:104AB000109087482E9900680AF01EFA0F908548DA
:104AC0002E9900680AF018FA0E90002132980AF028
:104AD00043F909D1002134980AF03EF904D10021AC
:104AE00035980AF039F97DD07B483299FFF7A9FA59
:104AF0007A4908607A483499FFF7A3FA794908603F
:104B000079483599FFF79DFA7849086078482F99D8
:104B1000FFF797FA7749086077483099FFF791FADD
:104B20007649086076483199FFF78BFA7549086035
:104B30006E48016800680AF0DFF90B906948016867
:104B400000680AF0D9F909906448016800680AF021
:104B5000D3F90890099909F0CFFF0A900B9909F051
:104B6000CBFF0C9009F047F901460D904FF07E50B5
:104B70000AF030F82E9059482E9900680AF0BCF9D6
:104B8000139058482E9900680AF0B6F912905748C9
:104B90002E9900680AF0B0F911901B99179809F046
:104BA000ABFF0A900E990AF0A7F90C901A99189881
:104BB0000AF032FB08900F990AF09EF90A904FF024
:104BC0007C5016990AF028FB079014990AF024FBF0
:104BD000089010990AF090F909900A9909F08CFF51
:104BE0000B9000E0F4E10C9909F086FF4FF0804152
:104BF0000D900AF081F92D901C9915980AF00CFB84
:104C00000A900E990AF078F90C904FF07C5019999F
:104C10000AF002FB079014990AF0FEFA08900F9927
:104C20000AF06AF90A901A99189809F065FF089035
:104C300010990AF061F909900A9909F05DFF0B904B
:104C40000C9909F059FF4FF080410D900AF054F98A
:104C50002C902C9908460AF04FF908902D99084697
:104C60000AF04AF90790089909F046FF099009F0FF
:104C700017FFCDE90A0109F097F8CDE90C0109F019
:104C8000E7F82B904FF07C5019990AF0C5FA09907B
:104C900016990AF0C1FA0A900E990AF02DF933E03C
:104CA0007C01002000003443000034C304010020D4
:104CB000080100200C01002010010020989999990A
:104CC0009999B93F2C010020CDCCCCCCCCCCEC3F79
:104CD00030010020340100207C2A00202001002027
:104CE000882A002024010020942A00202801002086
:104CF000A02A002014010020AC2A00201801002066
:104D0000B82A00201C0100200C901C99159809F06D
:104D1000F3FE08900F990AF0EFF80A901B99179884
:104D20000AF07AFA089010990AF0E6F809900A99C0
:104D300009F0E2FE0B900C9909F0DEFE4FF0804185
:104D40000D900AF0D9F82A901B9917980AF064FA86
:104D5000299015991C9809F0CFFE28904FF07C51AE
:104D60001D980AF059FA0D90149909F0C5FE279084
:104D70001B9917980AF050FA0B902A990AF0BCF880
:104D80000D904FF07C5016990AF046FA0A9014994B
:104D90000AF042FA0B902B990AF0AEF80C900D999C
:104DA00009F0AAFE269015991C9809F0A5FE0B9013
:104DB0002A990AF0A1F80D901A9918980AF02CFA7D
:104DC0000B902B990AF098F80C900D9909F094FE2D
:104DD00025904FF07C5019990AF01EFA0A90169906
:104DE0000AF01AFA0B902A990AF086F80D90179992
:104DF0001B9809F081FE0B902B990AF07DF80C901E
:104E00000D9909F079FE249025990E980AF074F80E
:104E10000B9024990F980AF06FF80A900B990AF0FA
:104E2000FBF90D90289911980AF066F80B902799D4
:104E300012980AF061F80A900B990AF0EDF90C90BB
:104E40000D9909F059FE2390249910980AF054F80E
:104E50000B9026990E980AF04FF80A900B990AF0D9
:104E6000DBF90D90279913980AF046F80B902999D1
:104E700011980AF041F80A900B990AF0CDF90C90BC
:104E80000D9909F039FE229026990F980AF034F80E
:104E90000B90259910980AF02FF80A900B990AF0B8
:104EA000BBF90D90299912980AF026F80B902899D1
:104EB00013980AF021F80A900B990AF0ADF90C90BA
:104EC0000D9909F019FE2190FE4801684FF07E50BF
:104ED00009F080FE0C90FC4823990AF00DF80B9025
:104EE0000C990AF009F80D90F84801680D9809F03E
:104EF00003FEF6490860F34801684FF07E5009F060
:104F000069FE0C90F048229909F0F6FF0B900C997D
:104F100009F0F2FF0D90EE4801680D9809F0ECFDE4
:104F2000EB490860E74801684FF07E5009F052FEF7
:104F30000C90E548219909F0DFFF0B900C9909F0DE
:104F4000DBFF0D90E34801680D9809F0D5FDE149BC
:104F50000860DE480168E048006809F0CDFDDE49E0
:104F60000860DB480168DD48006809F0C5FDDB49E1
:104F70000860D8480168DA48006809F0BDFDD849E2
:104F800008604FF08040239909F0B6FF0D90D24899
:104F900001680D9809F0B0FDCF4908604FF08040DE
:104FA000229909F0A9FF0D90CC4801680D9809F0ED
:104FB000A3FDCA4908604FF08040219909F09CFF89
:104FC0000D90C74801680D9809F096FDC449086026
:104FD000BC4801684FF07E5009F0FCFD4FF07C5159
:104FE0000C9009F089FF0D90BB4801680D9809F0FD
:104FF00083FFB9490860B34801684FF07E5009F05B
:10500000E9FD4FF07C510C9009F076FF0D90B3480C
:1050100001680D9809F070FFB0490860A94801685F
:105020004FF07E5009F0D6FD4FF07C510C9009F006
:1050300063FF0D90AA4801680D9809F05DFFA8492B
:105040000860A84800682090A74800681F90A748FB
:1050500000681E9008460168A548006809F04CFFEA
:105060000C909E4801681E9809F046FF0A901F9810
:1050700080F00040089098480168089809F03CFFCB
:1050800009900A990AF0C8F80B900C990AF0C4F834
:105090000D90944801680D9809F02EFD9149086023
:1050A0008E4801689248006809F026FF0C908C48F1
:1050B00001681E9809F020FF0A908748016820982F
:1050C00009F01AFF09900A9909F016FD0B900C9946
:1050D0000AF0A2F80D90844801680D9809F00CFDC3
:1050E000814908607C4801688148006809F004FF34
:1050F0000C907B4801681F9809F0FEFE0A907748E3
:105100000168209809F0F8FE09900A990AF084F8DD
:105110000B900C9909F0F0FC0D90744801680D9803
:1051200009F0EAFC714908606B4801681E9809F0B3
:10513000E3FE0C90694801681F9809F0DDFE0A90B3
:1051400067480168209809F0D7FE09900A9909F08C
:10515000D3FC0B900C990AF05FF80D90644801683D
:105160000D9809F0C9FC62490860084601680068AA
:1051700009F0C2FE0B905D480168006809F0BCFEB2
:10518000099059480168006809F0B6FE0790554833
:105190000168006809F0B0FE0690079909F0ACFCC0
:1051A0000890099909F0A8FC0A900B9909F0A4FC51
:1051B0000C9008F020FE01460D904FF07E5009F053
:1051C00009FD2E9047482E99006809F095FE454943
:1051D000086045482E99006809F08EFE4249086033
:1051E00042482E99006809F087FE4049086040480F
:1051F0002E99006809F080FE3D4908603948016831
:105200004FF0804009F078FE049038480168049817
:1052100009F072FE0690344801684FF0404009F0F2
:105220006BFE049032480168049809F065FE059011
:10523000069909F061FC079009F032FCCDE90801FC
:1052400008F086FA4FF066322A4BCDE90A0109F0E0
:1052500017F9CDE90C0108F0FBFD27490860234848
:1052600001684FF0804009F047FE01901F48016837
:10527000019809F041FE03901B4801684FF040403F
:1052800009F03AFE019018480168019809F034FECF
:105290000290039909F0C0FF4FF07E51049009F08D
:1052A0002BFC059009F0FCFBCDE908010D480168D5
:1052B0004FF0804009F020FE02900B4801680298F0
:1052C0001CE0000054010020CDCC4C3D38010020F2
:1052D0003C010020400100201401002018010020A2
:1052E0001C01002004010020080100200C01002006
:1052F0001001002066A64C407801002009F0FCFD5A
:105300000490C14801684FF0804009F0F5FD02901B
:10531000BE480168029809F0EFFD0390049909F076
:10532000EBFB059009F0BCFBCDE90601DDE90823A4
:1053300008F05EFC4FF06632B54BCDE90A0109F08A
:105340009FF8CDE90C0108F083FDB2490860AF4831
:1053500001684FF0804009F0CFFD0190AB48016833
:10536000019809F0C9FD0390A74801684FF040403B
:1053700009F0C2FD0190A4480168019809F0BCFD44
:105380000290039909F048FF4FF07E51049009F014
:10539000B3FB059009F084FBCDE908019E48016844
:1053A0004FF0804009F0A8FD0290984801680298EB
:1053B00009F0A2FD0490994801684FF0804009F07F
:1053C0009BFD029090480168029809F095FD0390BA
:1053D000049909F091FB059009F062FBCDE9060103
:1053E000DDE9082308F004FC4FF06632884BCDE974
:1053F0000A0109F045F8CDE90C0108F029FD8849BA
:10540000086000BFFFF7C7BA2DE9F047854800885C
:10541000401C8449088008460088322805DD0020A9
:1054200008808149532000F0CBFA7A48006809F0DF
:1054300037FB804600227D4B08F0F8FD064600222F
:105440007B4B09F01DF8044608F084FF764908708C
:105450007048006809F024FB80460022734B08F076
:10546000E5FD06460022724B09F00AF8044608F0F2
:1054700071FF000A6C4948706E49086809F010FB1A
:10548000804600226C4B08F0D1FD06460022684B96
:1054900008F0F6FF044608F05DFF6349887065492F
:1054A000086809F0FDFA80460022634B08F0BEFD53
:1054B000064600225E4B08F0E3FF044608F04AFF70
:1054C000000A5949C8705B49486809F0E9FA06467C
:1054D0000022594B08F0AAFD04460022544B08F064
:1054E000CFFF804608F036FF4F49087151494868A0
:1054F00009F0D6FA064600224F4B08F097FD044605
:1055000000224B4B08F0BCFF804608F023FF000A46
:105510004549487149480078162804D108468079E1
:1055200040F00100887146480078162805D13E48B1
:10553000807940F002003C49887142480078162882
:1055400005D13948807940F00400374988713E48D8
:105550000078162805D13448807940F00800324997
:10556000887100203949087039490870EE2000F030
:105570001AFA37480078EE3035490870EE2000F00E
:1055800012FA33480078EE30314908700020314972
:10559000087013E024492F4A1278885C00F003FA5F
:1055A00021482C490978405C294909780844284950
:1055B000087028480078401C264908702548007863
:1055C0000828E7DB2248007800F0EDF9BDE8F08715
:1055D00030B585B0FEF72EFE1F48006A80F000440B
:1055E0001D488169C0691C4A926802AB13C30192CD
:1055F00019484068184D00902B686A692969E86865
:10560000FFF767F905B030BD0C0100201001002044
:1056100066A64C407C010020040100200801002007
:1056200074010020720100206601002000806640A5
:105630000000E04094020020000024405A000020B6
:105640005B0000205C0000205D0000207001002055
:105650006E0100206F010020D82A002070B5054699
:10566000002405E0601CC4B2C82C01DD002070BD20
:105670000221FE4805F041FC0028F3D02946FB48F2
:1056800005F0E8FB002405E0601CC4B2C82C01DD75
:105690000020ECE70121F54805F02FFC0028F3D0AD
:1056A000F24805F0D9FBC0B2E1E770B505460C46FB
:1056B0004FF48051EE4805F040F82846FFF7CEFF42
:1056C00006462046FFF7CAFF4FF48051E84805F030
:1056D00032F8304670BD70B504464FF48051E4484E
:1056E00005F02BF844F08000FFF7B8FFFF20FFF72C
:1056F000B5FF05464FF48051DD4805F01CF82846FB
:1057000070BD70B504460D460C212520FFF7CDFF76
:1057100021462620FFF7C9FF29466320FFF7C5FF72
:105720001420FCF780FE70BD70B5044600258C2166
:105730002520FFF7BAFF21462620FFF7B6FFFF21FD
:105740006320FFF7B2FF4FF4FA70FCF748FE4920E0
:10575000FFF7C1FF0546284670BD10B57520FFF75D
:10576000BAFF0446712C7DD10120C24981F8250081
:1057700000216B20FFF799FF0A20FCF754FE6B20F5
:10578000FFF7A9FF18B10020BA4981F825000321CD
:105790001A20FFF78AFF0A20FCF745FE1A20FFF7C0
:1057A0009AFF032803D00020B24981F82500002188
:1057B0003820FFF77AFF0A20FCF735FE3820FFF784
:1057C0008AFF18B10020AB4981F82500002169202B
:1057D000FFF76BFF0A20FCF726FE6920FFF77BFF2F
:1057E00018B10020A34981F8250000216C20FFF7A3
:1057F0005CFF0A20FCF717FE6C20FFF76CFF18B166
:1058000000209C4981F8250030213720FFF74DFF0B
:105810000A20FCF708FE3720FFF75DFF302803D091
:105820000020944981F825004D212420FFF73DFFF9
:105830000A20FCF7F8FD2420FFF74DFF4D2803D088
:1058400000208C4981F8250020216A20FFF72DFFD8
:105850000A20FCF7E8FD6A20FFF73DFF202805D06D
:10586000002000E073E0834981F8250001216720D2
:10587000FFF71BFF0A20FCF7D6FD6720FFF72BFF81
:10588000012803D000207B4981F8250081212720B1
:10589000FFF70BFF0A20FCF7C6FD2720FFF71BFFD1
:1058A000812803D00020734981F82500092119209F
:1058B000FFF7FBFE0A20FCF7B6FD1920FFF70BFFF0
:1058C000092803D000206B4981F8250018211B20EE
:1058D000FFF7EBFE0A20FCF7A6FD1B20FFF7FBFEFF
:1058E000182803D00020634981F8250018211C20C6
:1058F000FFF7DBFE0A20FCF796FD1C20FFF7EBFE0E
:10590000182803D000205B4981F825000B211D20B9
:10591000FFF7CBFE0A20FCF786FD1D20FFF7DBFE1C
:105920000B2803D00020534981F825004FF47A70EA
:10593000FCF779FD01210B20FFF7E3FE4FF47A70AD
:10594000FCF771FD12210A20FFF7DBFE03E00020C7
:10595000484981F8250010BD10B540213820FFF7D7
:10596000A4FEC0216920FFF7A0FE03211E20FFF73F
:105970009CFE7F211F20FFF798FE07216C20FFF778
:1059800094FE20216B20FFF790FE10BD10B5044659
:1059900000BF3948008810F0400FFAD02146364841
:1059A00006F02CFB10BD10B5044600BF334800883C
:1059B00010F0400FFAD02146304806F01FFB10BD12
:1059C00070B506460C4600255520FFF7DFFF55252C
:1059D0003046FFF7DBFFA819C5B22078FFF7D6FFE6
:1059E00020782844C5B26078FFF7D0FF607828445B
:1059F000C5B2A078FFF7CAFFA0782844C5B2E07806
:105A0000FFF7C4FFE0782844C5B22079FFF7BEFF56
:105A100020792844C5B26079FFF7B8FF607928443F
:105A2000C5B2A079FFF7B2FFA0792844C5B2E079EA
:105A3000FFF7ACFFE0792844C5B22846FFF7A6FF80
:105A400070BD2DE9F0473C20FFF745FE0C4908707A
:105A50003B20FFF740FE0A49487008460078497825
:105A600040EA012000B2074908800DE000380040FC
:105A7000000C0140D82A00200050004000440040A3
:105A800082010020C42A0020B1F9000008F091FC36
:105A90008046FE4AFE4B08F0F3FC06460022FD4B12
:105AA00008F0C4FA044608F0D3F9FB490860FB4843
:105AB000007E77280DD1F94AD168F74A106809F0BD
:105AC0001BF80446F5480168204609F015FAF2492A
:105AD00008603E20FFF7FFFDF14988703D20FFF789
